{
  "contractName": "DiagnosticFormContract",
  "abi": [
    {
      "inputs": [
        {
          "internalType": "string",
          "name": "_recordId",
          "type": "string"
        },
        {
          "internalType": "string",
          "name": "_doctorName",
          "type": "string"
        },
        {
          "internalType": "string",
          "name": "_patientName",
          "type": "string"
        },
        {
          "internalType": "uint256",
          "name": "_age",
          "type": "uint256"
        },
        {
          "internalType": "string",
          "name": "_gender",
          "type": "string"
        },
        {
          "internalType": "string",
          "name": "_bloodGroup",
          "type": "string"
        },
        {
          "internalType": "address",
          "name": "_diagnosticAddress",
          "type": "address"
        },
        {
          "internalType": "address",
          "name": "_patientAddress",
          "type": "address"
        },
        {
          "internalType": "string",
          "name": "_cid",
          "type": "string"
        }
      ],
      "name": "createEHR",
      "outputs": [],
      "stateMutability": "nonpayable",
      "type": "function"
    },
    {
      "inputs": [],
      "name": "getRecords",
      "outputs": [
        {
          "components": [
            {
              "internalType": "string",
              "name": "recordId",
              "type": "string"
            },
            {
              "internalType": "string",
              "name": "doctorName",
              "type": "string"
            },
            {
              "internalType": "string",
              "name": "patientName",
              "type": "string"
            },
            {
              "internalType": "uint256",
              "name": "age",
              "type": "uint256"
            },
            {
              "internalType": "string",
              "name": "gender",
              "type": "string"
            },
            {
              "internalType": "string",
              "name": "bloodGroup",
              "type": "string"
            },
            {
              "internalType": "address",
              "name": "diagnosticAddress",
              "type": "address"
            },
            {
              "internalType": "address",
              "name": "patientAddress",
              "type": "address"
            },
            {
              "internalType": "string",
              "name": "cid",
              "type": "string"
            }
          ],
          "internalType": "struct DiagnosticFormContract.Record[]",
          "name": "",
          "type": "tuple[]"
        }
      ],
      "stateMutability": "view",
      "type": "function"
    }
  ],
  "bytecode": "0x608060405234801561001057600080fd5b50610f95806100206000396000f3fe608060405234801561001057600080fd5b50600436106100365760003560e01c80638eff3c291461003b5780639ff606f414610059575b600080fd5b610043610075565b604051610050919061094c565b60405180910390f35b610073600480360381019061006e9190610b0f565b6104f7565b005b60606000805480602002602001604051908101604052809291908181526020016000905b828210156104ee5783829060005260206000209060090201604051806101200160405290816000820180546100cd90610cb0565b80601f01602080910402602001604051908101604052809291908181526020018280546100f990610cb0565b80156101465780601f1061011b57610100808354040283529160200191610146565b820191906000526020600020905b81548152906001019060200180831161012957829003601f168201915b5050505050815260200160018201805461015f90610cb0565b80601f016020809104026020016040519081016040528092919081815260200182805461018b90610cb0565b80156101d85780601f106101ad576101008083540402835291602001916101d8565b820191906000526020600020905b8154815290600101906020018083116101bb57829003601f168201915b505050505081526020016002820180546101f190610cb0565b80601f016020809104026020016040519081016040528092919081815260200182805461021d90610cb0565b801561026a5780601f1061023f5761010080835404028352916020019161026a565b820191906000526020600020905b81548152906001019060200180831161024d57829003601f168201915b505050505081526020016003820154815260200160048201805461028d90610cb0565b80601f01602080910402602001604051908101604052809291908181526020018280546102b990610cb0565b80156103065780601f106102db57610100808354040283529160200191610306565b820191906000526020600020905b8154815290600101906020018083116102e957829003601f168201915b5050505050815260200160058201805461031f90610cb0565b80601f016020809104026020016040519081016040528092919081815260200182805461034b90610cb0565b80156103985780601f1061036d57610100808354040283529160200191610398565b820191906000526020600020905b81548152906001019060200180831161037b57829003601f168201915b505050505081526020016006820160009054906101000a900473ffffffffffffffffffffffffffffffffffffffff1673ffffffffffffffffffffffffffffffffffffffff1673ffffffffffffffffffffffffffffffffffffffff1681526020016007820160009054906101000a900473ffffffffffffffffffffffffffffffffffffffff1673ffffffffffffffffffffffffffffffffffffffff1673ffffffffffffffffffffffffffffffffffffffff16815260200160088201805461045d90610cb0565b80601f016020809104026020016040519081016040528092919081815260200182805461048990610cb0565b80156104d65780601f106104ab576101008083540402835291602001916104d6565b820191906000526020600020905b8154815290600101906020018083116104b957829003601f168201915b50505050508152505081526020019060010190610099565b50505050905090565b60006040518061012001604052808b81526020018a81526020018981526020018881526020018781526020018681526020018573ffffffffffffffffffffffffffffffffffffffff1681526020018473ffffffffffffffffffffffffffffffffffffffff16815260200183815250908060018154018082558091505060019003906000526020600020906009020160009091909190915060008201518160000190816105a39190610e8d565b5060208201518160010190816105b99190610e8d565b5060408201518160020190816105cf9190610e8d565b506060820151816003015560808201518160040190816105ef9190610e8d565b5060a08201518160050190816106059190610e8d565b5060c08201518160060160006101000a81548173ffffffffffffffffffffffffffffffffffffffff021916908373ffffffffffffffffffffffffffffffffffffffff16021790555060e08201518160070160006101000a81548173ffffffffffffffffffffffffffffffffffffffff021916908373ffffffffffffffffffffffffffffffffffffffff1602179055506101008201518160080190816106aa9190610e8d565b505050505050505050505050565b600081519050919050565b600082825260208201905092915050565b6000819050602082019050919050565b600081519050919050565b600082825260208201905092915050565b60005b8381101561071e578082015181840152602081019050610703565b60008484015250505050565b6000601f19601f8301169050919050565b6000610746826106e4565b61075081856106ef565b9350610760818560208601610700565b6107698161072a565b840191505092915050565b6000819050919050565b61078781610774565b82525050565b600073ffffffffffffffffffffffffffffffffffffffff82169050919050565b60006107b88261078d565b9050919050565b6107c8816107ad565b82525050565b60006101208301600083015184820360008601526107ec828261073b565b91505060208301518482036020860152610806828261073b565b91505060408301518482036040860152610820828261073b565b9150506060830151610835606086018261077e565b506080830151848203608086015261084d828261073b565b91505060a083015184820360a0860152610867828261073b565b91505060c083015161087c60c08601826107bf565b5060e083015161088f60e08601826107bf565b506101008301518482036101008601526108a9828261073b565b9150508091505092915050565b60006108c283836107ce565b905092915050565b6000602082019050919050565b60006108e2826106b8565b6108ec81856106c3565b9350836020820285016108fe856106d4565b8060005b8581101561093a578484038952815161091b85826108b6565b9450610926836108ca565b925060208a01995050600181019050610902565b50829750879550505050505092915050565b6000602082019050818103600083015261096681846108d7565b905092915050565b6000604051905090565b600080fd5b600080fd5b600080fd5b600080fd5b7f4e487b7100000000000000000000000000000000000000000000000000000000600052604160045260246000fd5b6109c48261072a565b810181811067ffffffffffffffff821117156109e3576109e261098c565b5b80604052505050565b60006109f661096e565b9050610a0282826109bb565b919050565b600067ffffffffffffffff821115610a2257610a2161098c565b5b610a2b8261072a565b9050602081019050919050565b82818337600083830152505050565b6000610a5a610a5584610a07565b6109ec565b905082815260208101848484011115610a7657610a75610987565b5b610a81848285610a38565b509392505050565b600082601f830112610a9e57610a9d610982565b5b8135610aae848260208601610a47565b91505092915050565b610ac081610774565b8114610acb57600080fd5b50565b600081359050610add81610ab7565b92915050565b610aec816107ad565b8114610af757600080fd5b50565b600081359050610b0981610ae3565b92915050565b60008060008060008060008060006101208a8c031215610b3257610b31610978565b5b60008a013567ffffffffffffffff811115610b5057610b4f61097d565b5b610b5c8c828d01610a89565b99505060208a013567ffffffffffffffff811115610b7d57610b7c61097d565b5b610b898c828d01610a89565b98505060408a013567ffffffffffffffff811115610baa57610ba961097d565b5b610bb68c828d01610a89565b9750506060610bc78c828d01610ace565b96505060808a013567ffffffffffffffff811115610be857610be761097d565b5b610bf48c828d01610a89565b95505060a08a013567ffffffffffffffff811115610c1557610c1461097d565b5b610c218c828d01610a89565b94505060c0610c328c828d01610afa565b93505060e0610c438c828d01610afa565b9250506101008a013567ffffffffffffffff811115610c6557610c6461097d565b5b610c718c828d01610a89565b9150509295985092959850929598565b7f4e487b7100000000000000000000000000000000000000000000000000000000600052602260045260246000fd5b60006002820490506001821680610cc857607f821691505b602082108103610cdb57610cda610c81565b5b50919050565b60008190508160005260206000209050919050565b60006020601f8301049050919050565b600082821b905092915050565b600060088302610d437fffffffffffffffffffffffffffffffffffffffffffffffffffffffffffffffff82610d06565b610d4d8683610d06565b95508019841693508086168417925050509392505050565b6000819050919050565b6000610d8a610d85610d8084610774565b610d65565b610774565b9050919050565b6000819050919050565b610da483610d6f565b610db8610db082610d91565b848454610d13565b825550505050565b600090565b610dcd610dc0565b610dd8818484610d9b565b505050565b5b81811015610dfc57610df1600082610dc5565b600181019050610dde565b5050565b601f821115610e4157610e1281610ce1565b610e1b84610cf6565b81016020851015610e2a578190505b610e3e610e3685610cf6565b830182610ddd565b50505b505050565b600082821c905092915050565b6000610e6460001984600802610e46565b1980831691505092915050565b6000610e7d8383610e53565b9150826002028217905092915050565b610e96826106e4565b67ffffffffffffffff811115610eaf57610eae61098c565b5b610eb98254610cb0565b610ec4828285610e00565b600060209050601f831160018114610ef75760008415610ee5578287015190505b610eef8582610e71565b865550610f57565b601f198416610f0586610ce1565b60005b82811015610f2d57848901518255600182019150602085019450602081019050610f08565b86831015610f4a5784890151610f46601f891682610e53565b8355505b6001600288020188555050505b50505050505056fea2646970667358221220e535d0fef862802030088390bed9a13572c58d1ceaa563716411d1bf24e0c12264736f6c63430008130033",
  "immutableReferences": {},
  "source": "// SPDX-License-Identifier: MIT\npragma solidity ^0.8.19;\n\ncontract DiagnosticFormContract {\n    struct Record {\n        string recordId;\n        string doctorName;\n        string patientName;\n        uint256 age;\n        string gender;\n        string bloodGroup;\n        address diagnosticAddress;\n        address patientAddress;\n        string cid;\n    }\n\n    Record[] private records;\n\n    function createEHR(\n        string memory _recordId,\n        string memory _doctorName,\n        string memory _patientName,\n        uint256 _age,\n        string memory _gender,\n        string memory _bloodGroup,\n        address _diagnosticAddress,\n        address _patientAddress,\n        string memory _cid\n    ) public {\n        records.push(Record(\n            _recordId,\n            _doctorName,\n            _patientName,\n            _age,\n            _gender,\n            _bloodGroup,\n            _diagnosticAddress,\n            _patientAddress,\n            _cid\n        ));\n    }\n\n    function getRecords() public view returns (Record[] memory) {\n        return records;\n    }\n}\n",
  "sourcePath": "C:\\Users\\Lenovo\\Desktop\\PROJECTS\\Secure-Electronic-Health-Records\\src\\contracts\\DiagnosticFormContract.sol",
  "compiler": {
    "name": "solc",
    "version": "0.8.19+commit.7dd6d404.Emscripten.clang"
  },
  "schemaVersion": "3.4.16",
  "updatedAt": "2026-04-06T10:11:55.818Z",
  "devdoc": {
    "kind": "dev",
    "methods": {},
    "version": 1
  },
  "userdoc": {
    "kind": "user",
    "methods": {},
    "version": 1
  }
}