{
  "contractName": "DoctorFormContract",
  "abi": [
    {
      "inputs": [
        {
          "internalType": "string",
          "name": "_recordId",
          "type": "string"
        },
        {
          "internalType": "string",
          "name": "_patientName",
          "type": "string"
        },
        {
          "internalType": "address",
          "name": "_doctorAddress",
          "type": "address"
        },
        {
          "internalType": "string",
          "name": "_gender",
          "type": "string"
        },
        {
          "internalType": "string",
          "name": "_diagnosis",
          "type": "string"
        },
        {
          "internalType": "string",
          "name": "_prescription",
          "type": "string"
        }
      ],
      "name": "createEHR",
      "outputs": [],
      "stateMutability": "nonpayable",
      "type": "function"
    },
    {
      "inputs": [],
      "name": "getRecords",
      "outputs": [
        {
          "components": [
            {
              "internalType": "string",
              "name": "recordId",
              "type": "string"
            },
            {
              "internalType": "string",
              "name": "patientName",
              "type": "string"
            },
            {
              "internalType": "address",
              "name": "doctorAddress",
              "type": "address"
            },
            {
              "internalType": "string",
              "name": "gender",
              "type": "string"
            },
            {
              "internalType": "string",
              "name": "diagnosis",
              "type": "string"
            },
            {
              "internalType": "string",
              "name": "prescription",
              "type": "string"
            }
          ],
          "internalType": "struct DoctorFormContract.Record[]",
          "name": "",
          "type": "tuple[]"
        }
      ],
      "stateMutability": "view",
      "type": "function"
    }
  ],
  "bytecode": "0x608060405234801561001057600080fd5b50610d37806100206000396000f3fe608060405234801561001057600080fd5b50600436106100365760003560e01c806343a899c51461003b5780638eff3c2914610057575b600080fd5b610055600480360381019061005091906106e9565b610075565b005b61005f6101a2565b60405161006c91906109f7565b60405180910390f35b60006040518060c001604052808881526020018781526020018673ffffffffffffffffffffffffffffffffffffffff16815260200185815260200184815260200183815250908060018154018082558091505060019003906000526020600020906006020160009091909190915060008201518160000190816100f89190610c2f565b50602082015181600101908161010e9190610c2f565b5060408201518160020160006101000a81548173ffffffffffffffffffffffffffffffffffffffff021916908373ffffffffffffffffffffffffffffffffffffffff160217905550606082015181600301908161016b9190610c2f565b5060808201518160040190816101819190610c2f565b5060a08201518160050190816101979190610c2f565b505050505050505050565b60606000805480602002602001604051908101604052809291908181526020016000905b8282101561052857838290600052602060002090600602016040518060c00160405290816000820180546101f990610a48565b80601f016020809104026020016040519081016040528092919081815260200182805461022590610a48565b80156102725780601f1061024757610100808354040283529160200191610272565b820191906000526020600020905b81548152906001019060200180831161025557829003601f168201915b5050505050815260200160018201805461028b90610a48565b80601f01602080910402602001604051908101604052809291908181526020018280546102b790610a48565b80156103045780601f106102d957610100808354040283529160200191610304565b820191906000526020600020905b8154815290600101906020018083116102e757829003601f168201915b505050505081526020016002820160009054906101000a900473ffffffffffffffffffffffffffffffffffffffff1673ffffffffffffffffffffffffffffffffffffffff1673ffffffffffffffffffffffffffffffffffffffff16815260200160038201805461037390610a48565b80601f016020809104026020016040519081016040528092919081815260200182805461039f90610a48565b80156103ec5780601f106103c1576101008083540402835291602001916103ec565b820191906000526020600020905b8154815290600101906020018083116103cf57829003601f168201915b5050505050815260200160048201805461040590610a48565b80601f016020809104026020016040519081016040528092919081815260200182805461043190610a48565b801561047e5780601f106104535761010080835404028352916020019161047e565b820191906000526020600020905b81548152906001019060200180831161046157829003601f168201915b5050505050815260200160058201805461049790610a48565b80601f01602080910402602001604051908101604052809291908181526020018280546104c390610a48565b80156105105780601f106104e557610100808354040283529160200191610510565b820191906000526020600020905b8154815290600101906020018083116104f357829003601f168201915b505050505081525050815260200190600101906101c6565b50505050905090565b6000604051905090565b600080fd5b600080fd5b600080fd5b600080fd5b6000601f19601f8301169050919050565b7f4e487b7100000000000000000000000000000000000000000000000000000000600052604160045260246000fd5b6105988261054f565b810181811067ffffffffffffffff821117156105b7576105b6610560565b5b80604052505050565b60006105ca610531565b90506105d6828261058f565b919050565b600067ffffffffffffffff8211156105f6576105f5610560565b5b6105ff8261054f565b9050602081019050919050565b82818337600083830152505050565b600061062e610629846105db565b6105c0565b90508281526020810184848401111561064a5761064961054a565b5b61065584828561060c565b509392505050565b600082601f83011261067257610671610545565b5b813561068284826020860161061b565b91505092915050565b600073ffffffffffffffffffffffffffffffffffffffff82169050919050565b60006106b68261068b565b9050919050565b6106c6816106ab565b81146106d157600080fd5b50565b6000813590506106e3816106bd565b92915050565b60008060008060008060c087890312156107065761070561053b565b5b600087013567ffffffffffffffff81111561072457610723610540565b5b61073089828a0161065d565b965050602087013567ffffffffffffffff81111561075157610750610540565b5b61075d89828a0161065d565b955050604061076e89828a016106d4565b945050606087013567ffffffffffffffff81111561078f5761078e610540565b5b61079b89828a0161065d565b935050608087013567ffffffffffffffff8111156107bc576107bb610540565b5b6107c889828a0161065d565b92505060a087013567ffffffffffffffff8111156107e9576107e8610540565b5b6107f589828a0161065d565b9150509295509295509295565b600081519050919050565b600082825260208201905092915050565b6000819050602082019050919050565b600081519050919050565b600082825260208201905092915050565b60005b8381101561086857808201518184015260208101905061084d565b60008484015250505050565b600061087f8261082e565b6108898185610839565b935061089981856020860161084a565b6108a28161054f565b840191505092915050565b6108b6816106ab565b82525050565b600060c08301600083015184820360008601526108d98282610874565b915050602083015184820360208601526108f38282610874565b915050604083015161090860408601826108ad565b50606083015184820360608601526109208282610874565b9150506080830151848203608086015261093a8282610874565b91505060a083015184820360a08601526109548282610874565b9150508091505092915050565b600061096d83836108bc565b905092915050565b6000602082019050919050565b600061098d82610802565b610997818561080d565b9350836020820285016109a98561081e565b8060005b858110156109e557848403895281516109c68582610961565b94506109d183610975565b925060208a019950506001810190506109ad565b50829750879550505050505092915050565b60006020820190508181036000830152610a118184610982565b905092915050565b7f4e487b7100000000000000000000000000000000000000000000000000000000600052602260045260246000fd5b60006002820490506001821680610a6057607f821691505b602082108103610a7357610a72610a19565b5b50919050565b60008190508160005260206000209050919050565b60006020601f8301049050919050565b600082821b905092915050565b600060088302610adb7fffffffffffffffffffffffffffffffffffffffffffffffffffffffffffffffff82610a9e565b610ae58683610a9e565b95508019841693508086168417925050509392505050565b6000819050919050565b6000819050919050565b6000610b2c610b27610b2284610afd565b610b07565b610afd565b9050919050565b6000819050919050565b610b4683610b11565b610b5a610b5282610b33565b848454610aab565b825550505050565b600090565b610b6f610b62565b610b7a818484610b3d565b505050565b5b81811015610b9e57610b93600082610b67565b600181019050610b80565b5050565b601f821115610be357610bb481610a79565b610bbd84610a8e565b81016020851015610bcc578190505b610be0610bd885610a8e565b830182610b7f565b50505b505050565b600082821c905092915050565b6000610c0660001984600802610be8565b1980831691505092915050565b6000610c1f8383610bf5565b9150826002028217905092915050565b610c388261082e565b67ffffffffffffffff811115610c5157610c50610560565b5b610c5b8254610a48565b610c66828285610ba2565b600060209050601f831160018114610c995760008415610c87578287015190505b610c918582610c13565b865550610cf9565b601f198416610ca786610a79565b60005b82811015610ccf57848901518255600182019150602085019450602081019050610caa565b86831015610cec5784890151610ce8601f891682610bf5565b8355505b6001600288020188555050505b50505050505056fea2646970667358221220fb6ea213f8ef7a1fa2d1599a08d497e798673f74dff159c4ce0cdb12b618930564736f6c63430008130033",
  "immutableReferences": {},
  "source": "// SPDX-License-Identifier: MIT\npragma solidity ^0.8.19;\n\ncontract DoctorFormContract {\n    struct Record {\n        string recordId;\n        string patientName;\n        address doctorAddress;\n        string gender;\n        string diagnosis;\n        string prescription;\n    }\n\n    Record[] private records;\n\n    function createEHR(\n        string memory _recordId,\n        string memory _patientName,\n        address _doctorAddress,\n        string memory _gender,\n        string memory _diagnosis,\n        string memory _prescription\n    ) public {\n        records.push(Record(\n            _recordId,\n            _patientName,\n            _doctorAddress,\n            _gender,\n            _diagnosis,\n            _prescription\n        ));\n    }\n\n    function getRecords() public view returns (Record[] memory) {\n        return records;\n    }\n}\n",
  "sourcePath": "C:\\Users\\Lenovo\\Desktop\\PROJECTS\\Secure-Electronic-Health-Records\\src\\contracts\\DoctorFormContract.sol",
  "compiler": {
    "name": "solc",
    "version": "0.8.19+commit.7dd6d404.Emscripten.clang"
  },
  "schemaVersion": "3.4.16",
  "updatedAt": "2026-04-06T10:11:55.873Z",
  "devdoc": {
    "kind": "dev",
    "methods": {},
    "version": 1
  },
  "userdoc": {
    "kind": "user",
    "methods": {},
    "version": 1
  }
}